[

  {
    "params": {
    },
    "response": {
      "transactions": [
        {
          "hash": "82caf0783590a47d33c9a8509bfd9f9b259b5cf06cab8e9ab6bd741abc11a52c",
          "rawtx": "020000000001013ae77197cc294cf8bdcc5a6a0b1acf264eb31d5995f201db22571544e390256a0000000000ffffffff01c995980000000000160014ebacb2c05fae50cf547a07c45b70afb9cd686e060400473044022038f106c8e16823bbfdeab5b307f28e7de0894cc9f8282895c43ecd838a59a26802204b55788774e62fa03e96f7d0a82133b4d0084c26ed2a7a07b6a6cd82906b81cd014730440220255f51c7d75bc42934bd9eb18e82e2d6f1dc748d06e2e8b4ca3da64d732b9d440220542d61092af752a3257adaa655f203e2fa4b42600c69d9126368c869b8ccf34301475221023d3fda69dfe6f5af6bf9a32c53b954a11b1fead427a1b9638b88a31ab4c3f337210292ad52b0df82130546bd89f49c37d670082b65566c050dce68506c52e8aea3e152ae00000000",
          "blockheight": 0,
          "txindex": 0,
          "locktime": 0,
          "version": 2,
          "inputs": [
            {
              "txid": "3ae77197cc294cf8bdcc5a6a0b1acf264eb31d5995f201db22571544e390256a",
              "index": 0,
              "sequence": 4294967295
            }
          ],
          "outputs": [
            {
              "index": 0,
              "satoshis": "9999817000msat",
              "scriptPubKey": "0014ebacb2c05fae50cf547a07c45b70afb9cd686e06"
            }
          ]
        },
        {
          "hash": "07961922ba560e9c7803fbaa232d67d8bb70264535f1424ef6dedc0e2bdc4911",
          "rawtx": "020000000001019aa6c8e72c7e0d69fcc6970d0b1ed717146c8f29153b318b85c584a130cf994d0100000000ffffffff02809698000000000022002074eee0ca34ee1676b29e6e566b5f8889f064c97e810403c15a1fee71d5104b71cc9b693a00000000160014d74af8b307ec036c45b855e8cc6502240dbcbc0202483045022100a0f037e5a678f7a66b63b39a272b6b6a84ff5837637b965381c8af04268ffcc70220653b05104002e96baae45a633742d84dee658b753f6b24fd1dbd406be86f723a012102b2d34d885b015009f5582bf8a84b98287c921c2c3994432eba6b551f70a8c6f800000000",
          "blockheight": 305,
          "txindex": 1,
          "locktime": 0,
          "version": 2,
          "inputs": [
            {
              "txid": "9aa6c8e72c7e0d69fcc6970d0b1ed717146c8f29153b318b85c584a130cf994d",
              "index": 1,
              "sequence": 4294967295
            }
          ],
          "outputs": [
            {
              "index": 0,
              "satoshis": "10000000000msat",
              "scriptPubKey": "002074eee0ca34ee1676b29e6e566b5f8889f064c97e810403c15a1fee71d5104b71"
            },
            {
              "index": 1,
              "satoshis": "979999692000msat",
              "scriptPubKey": "0014d74af8b307ec036c45b855e8cc6502240dbcbc02"
            }
          ]
        },
        {
          "hash": "ae9791bc4c807758fc72942aeed5fb3e1a8348ed1df9ca2c9a448977117c4a90",
          "rawtx": "020000000001011149dc2b0edcdef64e42f135452670bbd8672d23aafb03789c0e56ba221996070000000000ffffffff01c995980000000000160014cf98ee399979a6c00c8e75d8ff31ed763ef2a2ef040047304402201c2cea65e48c171e235c463e89ee912dd2d181272b93e76b0bdb8eeedf8ff12d02205b59ee23b23e54908470f3ad87696e1c5e6a9ed9b27dbd6a7071dc2aa86cf35301473044022065839a0d3207d6468c61c5f9f64edd449c63a643b1b3eed1c03c96985c05c513022010fe102945a3fde8a873b225e357bd92e79462233ef47bda881a642fb83e6144014752210302cd50c9ead94daacf2ff5b4a708fae87c31698f67a7c78b89bcb78369639b8821033e0871ea8b8d341d1d79b239756cf999e38eda868e75a5e7710ec7e3182c561152ae00000000",
          "blockheight": 305,
          "txindex": 2,
          "locktime": 0,
          "version": 2,
          "inputs": [
            {
              "txid": "1149dc2b0edcdef64e42f135452670bbd8672d23aafb03789c0e56ba22199607",
              "index": 0,
              "sequence": 4294967295
            }
          ],
          "outputs": [
            {
              "index": 0,
              "satoshis": "9999817000msat",
              "scriptPubKey": "0014cf98ee399979a6c00c8e75d8ff31ed763ef2a2ef"
            }
          ]
        }
      ]
    }
  }
]